{
  "_format": "hh-sol-artifact-1",
  "contractName": "OwnToken",
  "sourceName": "contracts/OwnToken.sol",
  "abi": [
    {
      "inputs": [
        {
          "internalType": "address",
          "name": "tokenAddress",
          "type": "address"
        }
      ],
      "stateMutability": "nonpayable",
      "type": "constructor"
    },
    {
      "inputs": [
        {
          "internalType": "address",
          "name": "",
          "type": "address"
        }
      ],
      "name": "balance",
      "outputs": [
        {
          "internalType": "uint256",
          "name": "",
          "type": "uint256"
        }
      ],
      "stateMutability": "view",
      "type": "function"
    },
    {
      "inputs": [
        {
          "internalType": "uint256",
          "name": "_amount",
          "type": "uint256"
        }
      ],
      "name": "tokenOwned",
      "outputs": [],
      "stateMutability": "nonpayable",
      "type": "function"
    },
    {
      "inputs": [],
      "name": "totalOwned",
      "outputs": [
        {
          "internalType": "uint256",
          "name": "",
          "type": "uint256"
        }
      ],
      "stateMutability": "view",
      "type": "function"
    },
    {
      "inputs": [],
      "name": "totalUser",
      "outputs": [
        {
          "internalType": "uint256",
          "name": "",
          "type": "uint256"
        }
      ],
      "stateMutability": "view",
      "type": "function"
    },
    {
      "inputs": [],
      "name": "withdrawTokens",
      "outputs": [],
      "stateMutability": "nonpayable",
      "type": "function"
    }
  ],
  "bytecode": "0x608060405234801561001057600080fd5b50604051610a91380380610a918339818101604052810190610032919061008e565b80600360006101000a81548173ffffffffffffffffffffffffffffffffffffffff021916908373ffffffffffffffffffffffffffffffffffffffff16021790555050610100565b600081519050610088816100e9565b92915050565b6000602082840312156100a057600080fd5b60006100ae84828501610079565b91505092915050565b60006100c2826100c9565b9050919050565b600073ffffffffffffffffffffffffffffffffffffffff82169050919050565b6100f2816100b7565b81146100fd57600080fd5b50565b6109828061010f6000396000f3fe608060405234801561001057600080fd5b50600436106100575760003560e01c8063179978781461005c578063895587c61461007a5780638d8f2adb14610096578063e1604b70146100a0578063e3d670d7146100be575b600080fd5b6100646100ee565b60405161007191906106c6565b60405180910390f35b610094600480360381019061008f9190610556565b6100f4565b005b61009e6102fe565b005b6100a86104a7565b6040516100b591906106c6565b60405180910390f35b6100d860048036038101906100d39190610504565b6104ad565b6040516100e591906106c6565b60405180910390f35b60005481565b60008111610137576040517f08c379a000000000000000000000000000000000000000000000000000000000815260040161012e906106a6565b60405180910390fd5b8060008082825461014891906106f2565b925050819055506000600260003373ffffffffffffffffffffffffffffffffffffffff1673ffffffffffffffffffffffffffffffffffffffff16815260200190815260200160002054116101af57600160008154809291906101a9906107ee565b91905055505b80600260003373ffffffffffffffffffffffffffffffffffffffff1673ffffffffffffffffffffffffffffffffffffffff16815260200190815260200160002060008282546101fe91906106f2565b925050819055506000600360009054906101000a900473ffffffffffffffffffffffffffffffffffffffff1673ffffffffffffffffffffffffffffffffffffffff166323b872dd3330856040518463ffffffff1660e01b815260040161026693929190610606565b602060405180830381600087803b15801561028057600080fd5b505af1158015610294573d6000803e3d6000fd5b505050506040513d601f19601f820116820180604052508101906102b8919061052d565b9050806102fa576040517f08c379a00000000000000000000000000000000000000000000000000000000081526004016102f190610666565b60405180910390fd5b5050565b6000600260003373ffffffffffffffffffffffffffffffffffffffff1673ffffffffffffffffffffffffffffffffffffffff1681526020019081526020016000205411610380576040517f08c379a000000000000000000000000000000000000000000000000000000000815260040161037790610686565b60405180910390fd5b6000600260003373ffffffffffffffffffffffffffffffffffffffff1673ffffffffffffffffffffffffffffffffffffffff168152602001908152602001600020549050600160008154809291906103d7906107c4565b9190505550806000808282546103ed9190610748565b92505081905550600360009054906101000a900473ffffffffffffffffffffffffffffffffffffffff1673ffffffffffffffffffffffffffffffffffffffff1663a9059cbb33836040518363ffffffff1660e01b815260040161045192919061063d565b602060405180830381600087803b15801561046b57600080fd5b505af115801561047f573d6000803e3d6000fd5b505050506040513d601f19601f820116820180604052508101906104a3919061052d565b5050565b60015481565b60026020528060005260406000206000915090505481565b6000813590506104d481610907565b92915050565b6000815190506104e98161091e565b92915050565b6000813590506104fe81610935565b92915050565b60006020828403121561051657600080fd5b6000610524848285016104c5565b91505092915050565b60006020828403121561053f57600080fd5b600061054d848285016104da565b91505092915050565b60006020828403121561056857600080fd5b6000610576848285016104ef565b91505092915050565b6105888161077c565b82525050565b600061059b600f836106e1565b91506105a682610866565b602082019050919050565b60006105be6010836106e1565b91506105c98261088f565b602082019050919050565b60006105e16022836106e1565b91506105ec826108b8565b604082019050919050565b610600816107ba565b82525050565b600060608201905061061b600083018661057f565b610628602083018561057f565b61063560408301846105f7565b949350505050565b6000604082019050610652600083018561057f565b61065f60208301846105f7565b9392505050565b6000602082019050818103600083015261067f8161058e565b9050919050565b6000602082019050818103600083015261069f816105b1565b9050919050565b600060208201905081810360008301526106bf816105d4565b9050919050565b60006020820190506106db60008301846105f7565b92915050565b600082825260208201905092915050565b60006106fd826107ba565b9150610708836107ba565b9250827fffffffffffffffffffffffffffffffffffffffffffffffffffffffffffffffff0382111561073d5761073c610837565b5b828201905092915050565b6000610753826107ba565b915061075e836107ba565b92508282101561077157610770610837565b5b828203905092915050565b60006107878261079a565b9050919050565b60008115159050919050565b600073ffffffffffffffffffffffffffffffffffffffff82169050919050565b6000819050919050565b60006107cf826107ba565b915060008214156107e3576107e2610837565b5b600182039050919050565b60006107f9826107ba565b91507fffffffffffffffffffffffffffffffffffffffffffffffffffffffffffffffff82141561082c5761082b610837565b5b600182019050919050565b7f4e487b7100000000000000000000000000000000000000000000000000000000600052601160045260246000fd5b7f5472616e73666572206661696c65640000000000000000000000000000000000600082015250565b7f4e6f7420656e6f75676820746f6b656e00000000000000000000000000000000600082015250565b7f546f6b656e20616d6f756e74206d75737420626520626967676572207468656e60008201527f2030000000000000000000000000000000000000000000000000000000000000602082015250565b6109108161077c565b811461091b57600080fd5b50565b6109278161078e565b811461093257600080fd5b50565b61093e816107ba565b811461094957600080fd5b5056fea26469706673582212206c5da1d7042ffc3f5a2a128d74736a2bcfa6da1054b4b83863eb35966d1fcdba64736f6c63430008020033",
  "linkReferences": {},
  "deployedLinkReferences": {}
}